{
  "_format": "hh-sol-artifact-1",
  "contractName": "Escrow",
  "sourceName": "contracts/Escrow.sol",
  "abi": [
    {
      "inputs": [
        {
          "internalType": "address",
          "name": "_recipient",
          "type": "address"
        },
        {
          "internalType": "uint256",
          "name": "_duration",
          "type": "uint256"
        }
      ],
      "stateMutability": "nonpayable",
      "type": "constructor"
    },
    {
      "anonymous": false,
      "inputs": [
        {
          "indexed": false,
          "internalType": "uint256",
          "name": "amount",
          "type": "uint256"
        },
        {
          "indexed": false,
          "internalType": "uint256",
          "name": "totalFunds",
          "type": "uint256"
        }
      ],
      "name": "FundsAdded",
      "type": "event"
    },
    {
      "anonymous": false,
      "inputs": [
        {
          "indexed": false,
          "internalType": "uint256",
          "name": "totalFunds",
          "type": "uint256"
        },
        {
          "indexed": false,
          "internalType": "address",
          "name": "to",
          "type": "address"
        }
      ],
      "name": "FundsWithdrawn",
      "type": "event"
    },
    {
      "inputs": [],
      "name": "deposit",
      "outputs": [
        {
          "internalType": "bool",
          "name": "success",
          "type": "bool"
        }
      ],
      "stateMutability": "payable",
      "type": "function"
    },
    {
      "inputs": [],
      "name": "depositor",
      "outputs": [
        {
          "internalType": "address payable",
          "name": "",
          "type": "address"
        }
      ],
      "stateMutability": "view",
      "type": "function"
    },
    {
      "inputs": [],
      "name": "duration",
      "outputs": [
        {
          "internalType": "uint256",
          "name": "",
          "type": "uint256"
        }
      ],
      "stateMutability": "view",
      "type": "function"
    },
    {
      "inputs": [],
      "name": "funds",
      "outputs": [
        {
          "internalType": "uint256",
          "name": "",
          "type": "uint256"
        }
      ],
      "stateMutability": "view",
      "type": "function"
    },
    {
      "inputs": [],
      "name": "recipient",
      "outputs": [
        {
          "internalType": "address payable",
          "name": "",
          "type": "address"
        }
      ],
      "stateMutability": "view",
      "type": "function"
    },
    {
      "inputs": [],
      "name": "withdraw",
      "outputs": [
        {
          "internalType": "bool",
          "name": "success",
          "type": "bool"
        }
      ],
      "stateMutability": "nonpayable",
      "type": "function"
    }
  ],
  "bytecode": "0x60806040523480156200001157600080fd5b5060405162000bc938038062000bc9833981810160405281019062000037919062000103565b81600360006101000a81548173ffffffffffffffffffffffffffffffffffffffff021916908373ffffffffffffffffffffffffffffffffffffffff16021790555033600260006101000a81548173ffffffffffffffffffffffffffffffffffffffff021916908373ffffffffffffffffffffffffffffffffffffffff1602179055508042620000c7919062000144565b600181905550505062000242565b600081519050620000e6816200020e565b92915050565b600081519050620000fd8162000228565b92915050565b600080604083850312156200011757600080fd5b60006200012785828601620000d5565b92505060206200013a85828601620000ec565b9150509250929050565b60006200015182620001d5565b91506200015e83620001d5565b9250827fffffffffffffffffffffffffffffffffffffffffffffffffffffffffffffffff03821115620001965762000195620001df565b5b828201905092915050565b6000620001ae82620001b5565b9050919050565b600073ffffffffffffffffffffffffffffffffffffffff82169050919050565b6000819050919050565b7f4e487b7100000000000000000000000000000000000000000000000000000000600052601160045260246000fd5b6200021981620001a1565b81146200022557600080fd5b50565b6200023381620001d5565b81146200023f57600080fd5b50565b61097780620002526000396000f3fe6080604052600436106100555760003560e01c80630fb5a6b41461005a5780633ccfd60b1461008557806366d003ac146100b0578063c7c4ff46146100db578063c89f2ce414610106578063d0e30db014610131575b600080fd5b34801561006657600080fd5b5061006f61014f565b60405161007c91906107c0565b60405180910390f35b34801561009157600080fd5b5061009a610155565b6040516100a791906106e5565b60405180910390f35b3480156100bc57600080fd5b506100c5610347565b6040516100d291906106ca565b60405180910390f35b3480156100e757600080fd5b506100f061036d565b6040516100fd91906106ca565b60405180910390f35b34801561011257600080fd5b5061011b610393565b60405161012891906107c0565b60405180910390f35b610139610399565b60405161014691906106e5565b60405180910390f35b60015481565b6000600360009054906101000a900473ffffffffffffffffffffffffffffffffffffffff1673ffffffffffffffffffffffffffffffffffffffff163373ffffffffffffffffffffffffffffffffffffffff16146101e7576040517f08c379a00000000000000000000000000000000000000000000000000000000081526004016101de90610760565b60405180910390fd5b60015480421161022c576040517f08c379a0000000000000000000000000000000000000000000000000000000008152600401610223906107a0565b60405180910390fd5b6000805411610270576040517f08c379a000000000000000000000000000000000000000000000000000000000815260040161026790610720565b60405180910390fd5b600360009054906101000a900473ffffffffffffffffffffffffffffffffffffffff1673ffffffffffffffffffffffffffffffffffffffff166108fc6000549081150290604051600060405180830381858888f193505050501580156102da573d6000803e3d6000fd5b507f6141b54b56b8a52a8c6f5cd2a857f6117b18ffbf4d46bd3106f300a839cbf5ea600054600360009054906101000a900473ffffffffffffffffffffffffffffffffffffffff166040516103309291906107db565b60405180910390a160008081905550600191505090565b600360009054906101000a900473ffffffffffffffffffffffffffffffffffffffff1681565b600260009054906101000a900473ffffffffffffffffffffffffffffffffffffffff1681565b60005481565b6000600260009054906101000a900473ffffffffffffffffffffffffffffffffffffffff1673ffffffffffffffffffffffffffffffffffffffff163373ffffffffffffffffffffffffffffffffffffffff161461042b576040517f08c379a000000000000000000000000000000000000000000000000000000000815260040161042290610780565b60405180910390fd5b600154804210610470576040517f08c379a000000000000000000000000000000000000000000000000000000000815260040161046790610740565b60405180910390fd5b600034116104b3576040517f08c379a00000000000000000000000000000000000000000000000000000000081526004016104aa90610700565b60405180910390fd5b346000808282546104c4919061083e565b925050819055507ff5e4934928a1e45d88c7a5aa2661fe0a801ca5017922e15122d74f1880155e1a346000546040516104fe929190610804565b60405180910390a1600191505090565b610517816108dc565b82525050565b61052681610894565b82525050565b610535816108a6565b82525050565b6000610548601f8361082d565b91507f56616c7565206d7573742062652067726561746572207468616e207a65726f006000830152602082019050919050565b600061058860148361082d565b91507f4e6f2066756e647320746f2077697468647261770000000000000000000000006000830152602082019050919050565b60006105c860088361082d565b91507f546f6f206c6174650000000000000000000000000000000000000000000000006000830152602082019050919050565b600061060860118361082d565b91507f4e6f742074686520726563697069656e740000000000000000000000000000006000830152602082019050919050565b600061064860118361082d565b91507f4e6f7420746865206465706f7369746f720000000000000000000000000000006000830152602082019050919050565b600061068860098361082d565b91507f546f6f206561726c7900000000000000000000000000000000000000000000006000830152602082019050919050565b6106c4816108d2565b82525050565b60006020820190506106df600083018461051d565b92915050565b60006020820190506106fa600083018461052c565b92915050565b600060208201905081810360008301526107198161053b565b9050919050565b600060208201905081810360008301526107398161057b565b9050919050565b60006020820190508181036000830152610759816105bb565b9050919050565b60006020820190508181036000830152610779816105fb565b9050919050565b600060208201905081810360008301526107998161063b565b9050919050565b600060208201905081810360008301526107b98161067b565b9050919050565b60006020820190506107d560008301846106bb565b92915050565b60006040820190506107f060008301856106bb565b6107fd602083018461050e565b9392505050565b600060408201905061081960008301856106bb565b61082660208301846106bb565b9392505050565b600082825260208201905092915050565b6000610849826108d2565b9150610854836108d2565b9250827fffffffffffffffffffffffffffffffffffffffffffffffffffffffffffffffff0382111561088957610888610912565b5b828201905092915050565b600061089f826108b2565b9050919050565b60008115159050919050565b600073ffffffffffffffffffffffffffffffffffffffff82169050919050565b6000819050919050565b60006108e7826108ee565b9050919050565b60006108f982610900565b9050919050565b600061090b826108b2565b9050919050565b7f4e487b7100000000000000000000000000000000000000000000000000000000600052601160045260246000fdfea2646970667358221220dfc7c965bbe7a1e1c9d444e1a30bb9af60ddb3e0237236655b243eacdfea409264736f6c63430008000033",
  "linkReferences": {},
  "deployedLinkReferences": {}
}